:020000040000FA
:100000000728000000000000000000000000831628
:1000100003308E0018308500203087008730810043
:10002000FF2390001C1183120730990018308500BF
:10003000003087008B01BD01CE01BC014821113089
:1000400024060319CE15FF30BC00482124080319EB
:10005000BD16FE30BC00482108302402031C3128A4
:100060003828FD30BC00482132302402031C90287F
:10007000FE30BC00A4012821FD30BC00A4012821D1
:1000800090281430C0004720C00B43280034B33000
:10009000BF004D20BF0B492800340530BE0064006E
:1000A000BE0B4F28000000346400811F0034811310
:1000B000A00AA10A1D302102031C0034A101A20ADA
:1000C0000034C60A4D2050304602031885283D1BD7
:1000D0006C28851961286E28851D61280330460229
:1000E000031C8528C70A4D20503047020318852875
:1000F0003D1B7D28851D72287F28851972280330B5
:100100004702031C85283D1200343D16003449087F
:10011000BC000310BC0D0310BC0D4908BC07003423
:1001200064008101A0015420A420B620F321BD1D4C
:1001300093284E19A2283D18A0013D189328532159
:100140003D1D9328E02293280A302002031C00342E
:10015000B301B201B101B001B701B601B501B401FB
:100160003D10071005118512A00100340A30C100AE
:10017000051AC0284720C10BB8281130CB00CA2867
:100180000A30C100871A00344720C10BC228223030
:10019000CB00CA288516071005118101A101A20113
:1001A0005420063022020318FF28051ED028871E7F
:1001B000D0284720051ED028871ED028CE14A101A4
:1001C000A20154200F3022020318F928F321BD1D8B
:1001D000E1284E19EE285321B121F928BC01113034
:1001E000A4002821CE154B08A4000130BC00282112
:1001F000F9280530C1002021A001CE10003485125D
:10020000FF30A400FF30BC0028210030A400FE30E5
:10021000BC0028210030A400FD30BC002821BC0116
:10022000FF30A40028216400051E1329871E13290E
:100230004720051E1329871E1329BD01CE01003456
:100240008512412085164120C10B202985120034DA
:1002500064005420240883169A0083123C088316F5
:100260009B001C158B1355309D00AA309D009C14DB
:10027000000064008312542083169C1839291C1135
:100280001C1400001A0883122406031D28290034B8
:10029000640054203C0883169B001C1400001A08BC
:1002A0008312A400003464003D11BD1A6D29FD3095
:1002B000BC0048212408C900FE30BC0048212408A5
:1002C000C8004808031D68294908031D682900342F
:1002D0004808C4004908C50071290830C4003230FC
:1002E000C500C801C9015420A030A7000310480D63
:1002F000A70487206F2324082F06031D9729BC0A13
:100300006F2324082E06031D9729BC0A6F23240897
:100310002D06031D9729BC0A6F2324082C06031DF4
:100320009729BC0A6F232408CA003D150034C90A66
:10033000480844060319A12932304902031C7329D5
:10034000A62945084902031C7329B029C90144089C
:1003500048060319B029C80A08304802031C73294B
:1003600000346400A030A7000310480DA7048720C4
:100370002F08A4006223BC0A2E08A4006223BC0A32
:100380002D08A4006223BC0A2C08A4006223BC0A26
:100390004B08A40062233D190034FD30BC00482105
:1003A0002408C900FE30BC0048212408C800C90A3E
:1003B00032304902031CE829C901C80A0830480242
:1003C000031CE829C801FF30BC00A4012821BD1688
:1003D000FD30BC004908A4002821FE30BC004808BC
:1003E000A40028210034BD11BD104E11C601851D89
:1003F0000034C60A4D2050304602031800348519D7
:10040000F929C601C7014D20C70A0319C60A0330DE
:10041000460203180034851D032A03304702CD002D
:100420004608031D1D2A32304702031C0034503099
:100430004702031CBD140318BD103D1F2C2AC60122
:10044000C60A4D2050304602031800348519202A70
:1004500003304602031C0034B801C101C601C701C4
:100460004E1061203D1A6F2A47084602AF0CAE0CB1
:10047000AD0CAC0CAB0CAA0CA90CA80CBD1C482AEA
:100480004D084602031800344D0847020318003493
:1004900046084702031C003C033C031C592A4E1427
:1004A000380803194E15C10A0430410203180034FC
:1004B000652A4E1C652A02304102031C652A3D1F35
:1004C000632A3D1300343D170034C601C701542090
:1004D000C60AB80A40303802031C312AA72A08305D
:1004E0003802031C00344E1D7B2A35303802031DB0
:1004F0005F2ABD1500344E185F2A353038020319C3
:10050000792A0310AF0CAE0CAD0CAC0CAB0CAA0CE2
:10051000A90CA80CB80A40303802031C812A2F0805
:10052000A3002808AF002308A8002E08A30029086C
:10053000AE002308A9002D08A3002A08AD00230857
:10054000AA002C08A3002B08AC002308AB00640011
:100550002F083306031DB92A2E083206031DB92AB7
:100560002D083106031DB92A2C083006031DB92AAF
:10057000C32A2F08B3002E08B2002D08B1002C08A2
:10058000B000CE180034BD1533083706031DD62A37
:1005900032083606031DD62A31083506031DD62A31
:1005A00030083406031DD62A3D1400343308B70042
:1005B0003208B6003108B5003008B4003D100034F0
:1005C0004E1DE92ACE1D00340130BC00482124080C
:1005D000CA00A00111304A060319F32A22304A0644
:1005E0000319F62A00340511071400340710051505
:1005F0000034831620308700831287150716002BDE
:100600008711000000000000052B0712003483163C
:100610002030870083128711071600000000102B7E
:10062000112B871500340830C100A6016400A60D07
:10063000031C261003182614831628308700831203
:100640008715A31007168719A31400000712A31813
:100650002614C10B162B2314831620308700831217
:10066000231C342B8715372B87110000372B0716D7
:10067000392B071200340830C10064002310A51B79
:1006800023148316203087008312231C492B8715DF
:100690004C2B871100004C2B07164E2B0712A50D73
:1006A000031C251003182514C10B3D2B831628307D
:1006B000870083128715A31007168719A31400005B
:1006C000071200342708A500F9223B233C08A500A7
:1006D0003B232408A5003B23072347200034270899
:1006E000A500F9223B233C08A5003B23F92227085B
:1006F000A50025143B23132307232608A400003458
:10070000FF3FFF3FFF3FFF3FFF3FFF3FFF3FFF3FF9
:10071000FF3FFF3FFF3FFF3FFF3FFF3FFF3FFF3FE9
:10072000FF3FFF3FFF3FFF3FFF3FFF3FFF3FFF3FD9
:10073000FF3FFF3FFF3FFF3FFF3FFF3FFF3FFF3FC9
:10074000FF3FFF3FFF3FFF3FFF3FFF3FFF3FFF3FB9
:10075000FF3FFF3FFF3FFF3FFF3FFF3FFF3FFF3FA9
:10076000FF3FFF3FFF3FFF3FFF3FFF3FFF3FFF3F99
:10077000FF3FFF3FFF3FFF3FFF3FFF3FFF3FFF3F89
:10078000FF3FFF3FFF3FFF3FFF3FFF3FFF3FFF3F79
:10079000FF3FFF3FFF3FFF3FFF3FFF3FFF3FFF3F69
:1007A000FF3FFF3FFF3FFF3FFF3FFF3FFF3FFF3F59
:1007B000FF3FFF3FFF3FFF3FFF3FFF3FFF3FFF3F49
:1007C000FF3FFF3FFF3FFF3FFF3FFF3FFF3FFF3F39
:1007D000FF3FFF3FFF3FFF3FFF3FFF3FFF3FFF3F29
:1007E000FF3FFF3FFF3FFF3FFF3FFF3FFF3FFF3F19
:1007F000FF3FFF3FFF3FFF3FFF3FFF3FFF3F3C34D7
:10420000FF00FF00FF00FF00FF00FF00FF00FF00B6
:10421000FF00FF00FF00FF00FF00FF00FF00FF00A6
:10422000FF00FF00FF00FF00FF00FF00FF00FF0096
:10423000FF00FF00FF00FF00FF00FF00FF00FF0086
:10424000FF00FF00FF00FF00FF00FF00FF00FF0076
:10425000FF00FF00FF00FF00FF00FF00FF00FF0066
:10426000FF00FF00FF00FF00FF00FF00FF00FF0056
:10427000FF00FF00FF00FF00FF00FF00FF00FF0046
:10428000FF00FF00FF00FF00FF00FF00FF00FF0036
:10429000FF00FF00FF00FF00FF00FF00FF00FF0026
:1042A000FF00FF00FF00FF00FF00FF00FF00FF0016
:1042B000FF00FF00FF00FF00FF00FF00FF00FF0006
:1042C000FF00FF00FF00FF00FF00FF00FF00FF00F6
:1042D000FF00FF00FF00FF00FF00FF00FF00FF00E6
:1042E000FF00FF00FF00FF00FF00FF00FF00FF00D6
:1042F000FF00FF00FF00FF00FF0003000000FF00C1
:02400E00DC11C3
:084000007F007F007F007F00BC
:00000001FF
